:060000000A128A110C280F
:10000800FE00030EF1000A08F2000A128A111328F2
:100018000A128A110F2883010A128A115F280B1C01
:100028001628172828288312031306181C281D28A9
:1000380021280130F0007008850786182428252813
:100048002728013085020B100B1D2B282C28372858
:100058000A128A1185200A128A110130F0007008EC
:1000680083120313870772088A00710E8300FE0E3D
:100078007E0E09008316031788018901831603136E
:1000880085018312031385018316031387018312E5
:10009800031387018316031306148614811315149A
:1000A80095148B15161496140B100F088F395038A9
:1000B8008F000F1408000A128A113E200A128A11B2
:1000C8000A128A1172200A128A110A128A118B20C6
:1000D8000A128A116E280A128A110C288316031331
:1000E800811281110115811401140A128A117F20CD
:1000F8000A128A1108003C308312031381000B1185
:1001080008003C308312031381000B1108008B1682
:080118000B118B170B170800F7
:08400000FF3FFF3FFF3FFF3FC0
:04400E00D420FF3F7C
:00000001FF
