:060000000A128A110C280F
:10000800FE00030EF1000A08F2000A128A113028D5
:100018000A128A110F2883010A128A114C288316A2
:1000280003178801890183160313850183120313BB
:10003800850183160313870183120313870183162F
:100048000313061486148113151495148B178B1536
:10005800161496140B1008000B1C33283428452856
:1000680083120313061839283A283E280130F00075
:1000780070088507861841284228442801308502DF
:100088000B1072088A00710E8300FE0E7E0E0900A6
:100098000A128A1113200A128A1151280A128A1187
:0200A8000C2822
:08400000FF3FFF3FFF3FFF3FC0
:04400E00D420FF3F7C
:00000001FF
