:060000000A128A11142906
:100200008A010A140F3982073F3406345B344F34B5
:1002100066346D347D3407347F346F3477347C3406
:1002200039345E347934713423212A213821003065
:10023000002188000B1D1A293221860A051C48213D
:10024000851C51211A29031383160F140F178F12BF
:100250000F160800031383168112811101158114F2
:1002600001143221031383123D3081000B11080069
:100270000317831688018901031305148514860169
:100280008701880103138312860187018801080012
:100290004E21870A0708002188000800051C4E2906
:1002A0000800572187030708002188000800851CE3
:0402B00057290800C2
:04400E00C430FF3F7C
:00000001FF
