:060000000A128A110C280F
:10000800FE00030EF7000A08F8000A128A112928D0
:100018000A128A110F280A128A110E220A128A114C
:10002800F900A001A101A201A301A401A501A60153
:10003800A701A801A901AA01F001F101F201F30148
:10004800F40183010A128A117E29831203130C1FFB
:100058002E282F28F4281F0CF500750C0F39003AAC
:10006800031D3728382862281E08F5000310750C70
:100078007C3E95001E080139F5007508F4008316CA
:1000880003131E08F50007300310F50CFF3E031D8F
:1000980048287508F6007608F200740C83120313DA
:1000A800031C971203189716720C031C17120318D7
:1000B80017161F08C33904389F00EB281F0CF500DA
:1000C800750C0F39013A031D6A286B2895281E08FC
:1000D800F5000310750C7C3E9B001E080139F500E5
:1000E8007508F300831603131E08F5000730031084
:1000F800F50CFF3E031D7B287508F6007608F10015
:10010800730C83120313031C9D1203189D16710CA4
:10011800031C1D1203181D161F08C33908389F0039
:10012800EB281F0CF500750C0F39023A031D9D28AA
:100138009E28C1281E08F5000310750C7C3E9B0004
:100148001E08F5000310750C7C3EF6007608A80022
:10015800831603131E08F50007300310F50CFF3E45
:10016800031DB1287508F600760883120313A6004C
:100178001F08C3390C389F00EB281F0CF500750CBD
:100188000F39033A031DC928CA28EB281E08F500B1
:100198000310750C7C3E9B001E08F5000310750CBF
:1001A8007C3EF6007608A700831603131E08F500A8
:1001B80007300310F50CFF3E031DDD287508F60017
:1001C800760883120313A500C3309F05EB281A3065
:1001D800F500F50BED280000831203130C139F1490
:1001E8000B1DF728F828FD280A128A110C220A127A
:1001F8008A110B1C002901291429831203130618DC
:10020800062907290B290130F5007508F907790334
:10021800031D0F29102913290608060806080B10C4
:1002280078088A00770E8300FE0E7E0E0900703073
:10023800831603138F040F140A128A11C3210A129A
:100248008A1183160317890108148814081588155C
:100258000F3083160313850087018312031385016A
:10026800870183160313880183120313880186010B
:100278001F083F3980389F001F11831603139F12F0
:100288001F129F13831203131F14203083120313AA
:10029800AB00AB0B4D290000831603130715FA308A
:1002A80092003F308312031397051708F0390C3872
:1002B80097000F309500CF309705831603138714E6
:1002C800831203131D08F0390C389D000F309B0072
:1002D8009D128C100330920412158C1C74297529F8
:1002E80071298C10831603130711871083120313C7
:1002F8009F1408000A128A111B210A128A110A1275
:100308008A11D9210A128A1104307906031D8D2910
:100318008E299029F901F90A7908831203138800B4
:10032800790888001030AC002C08F0000A128A11F5
:10033800FB210A128A1110300A128A11E7210A12C7
:100348008A1100300A128A11E7210A128A110A1248
:100358008A11F2210A128A11023083120313AE00A5
:100368000430AD00B930AC00AC0BB829AD0BB829DE
:10037800AE0BB829BF2988290A128A110C288B16B6
:100388000B11831203130C13831603130C178B170B
:100398000B178B150B10061486140615861581137A
:1003A8000F3095000F3096000800133083160313A2
:1003B80093009417831203131408F0390838940033
:1003C80094168C11080083120313AB002B089300BA
:1003D8000A128A1104220A128A11080083160313CA
:1003E80011150A128A1104220A128A1108008316AA
:1003F800031311140A128A1104220A128A1108001E
:10040800831203138C1D092A0A2A042A8C11080056
:060418000B110800013485
:08400000FF3FFF3FFF3FFF3FC0
:04400E00D420FF3F7C
:00000001FF
