:060000000A128A110C280F
:10000800FE00030EFA000A08FB000A128A112128D2
:100018000A128A110F280A128A115F210A128A11FC
:10002800FD00F001F101F201F301F401F501F6011F
:10003800F70183010A128A113029831203130C1F56
:1000480026282728AE281F0CF800780C0F39003A0C
:10005800031D2F28302859281E08F8000310780C93
:100068007C3E95001E080139F800F80EF80D1708B7
:100078007806DF3978069700831603131E08F80000
:1000880007300310F80CFF3E031D45287808F900D7
:10009800F90E8312031317087906EF3979069700CA
:1000A8001F08C33904389F00A5281F0CF800780CD6
:1000B8000F39013A031D612862288B281E08F800B1
:1000C8000310780C7C3E9B001E080139F800F80EDE
:1000D800F80D1D087806DF3978069D00831603138E
:1000E8001E08F80007300310F80CFF3E031D7728A0
:1000F8007808F900F90E831203131D087906EF3901
:1001080079069D001F08C33908389F00A5281F0CD1
:10011800F800780C0F39023A031D9328942899287F
:100128001F08C3390C389F00A5281F0CF800780C4D
:100138000F39033A031DA128A228A528C3309F051B
:10014800A5281A30F800F80BA7280000831203131B
:100158000C139F140B1DB128B228B7280A128A1154
:100168005D210A128A110B1CBA28BB28C9288312E0
:1001780003130618C028C128C5280130F8007808DC
:10018800FD070608060806080B107B088A007A0E89
:100198008300FE0E7E0E09007030831603138F0451
:1001A8000F140A128A1147210A128A11831603179B
:1001B800890108148814081588150F30831603134D
:1001C80085008701831203138501870183160313B2
:1001D800880183120313880186011F083F3980387C
:1001E8009F001F11831603139F121F129F13831260
:1001F80003131F142130FC00FC0B00298316031382
:100208000715FA3092003F30831203139705170839
:10021800F0390C3897000F309500CF3097058316CA
:1002280003138714831203131D08F0390C389D003B
:100238000F309B009D128C100330920412158C1CF9
:100248002629272923298C108316031307118710C1
:10025800831203139F1408000A128A11D0200A126D
:100268008A1104307D06031D3A293B293D29FD01E9
:10027800FD0A7D088312031388007D08880035294C
:100288000A128A110C288B160B11831203130C13F4
:10029800831603130C178B170B178B150B100614EB
:1002A80086140615861581130F3095000F309600B9
:0802B80008000B1108000134DD
:08400000FF3FFF3FFF3FFF3FC0
:04400E00D420FF3F7C
:00000001FF
