:060000000A128A110C280F
:10000800FE00030EF2000A08F3000A128A111328F0
:100018000A128A110F2883010A128A118028831272
:1000280003130C1F1828192879281F0CF000700CCE
:100038000F39003A031D212822284B281E08F000FA
:100048000310700C7C3E95001E080139F000F00E7C
:10005800F00D17087006DF39700697008316031332
:100068001E08F00007300310F00CFF3E031D372870
:100078007008F100F10E8312031317087106EF39A7
:10008800710697001F08C33904389F0071281E089D
:10009800F0000310700C7C3E9B001E080139F00034
:1000A800F00EF00D1D087006DF3970069D008316EE
:1000B80003131E08F00007300310F00CFF3E031D69
:1000C80060287008F100F10E831203131D087106F1
:1000D800EF3971069D00C3309F052130F000F00B09
:1000E8007328831203130C139F1473088A00720E6B
:1000F8008300FE0E7E0E09007030831603138F04F2
:100108000F14831603178901081488140330831603
:100118000313850087018312031385018701860174
:100128001F083F3980389F001F11831603139F1241
:100138001F129F13831203131F142130F400F40BB2
:10014800A328831603130715FA3092003F30831251
:10015800031397051708F0390C3897000F309500EE
:10016800CF309705831603138714831203131D08D2
:10017800F0390C389D000F309B009D128C10033015
:10018800920412158C1CC928CA28C6288C108316FC
:10019800031307118710831203130C138316031319
:1001A8000C170B178B17831203139F14DA280A12E4
:0401B8008A110C2874
:08400000FF3FFF3FFF3FFF3FC0
:04400E00D420FF3F7C
:00000001FF
