:060000000A128A110C280F
:10000800FE00030EF3000A08F4000A128A111728EA
:100018000A128A110F28F601F701F801F901830184
:100028000A128A11CA28831203130C1F1C281D28C0
:100038009F281F0CF000700C0F39003A031D25286B
:1000480026284F281E08F0000310700C7C3E9500EF
:100058001E080139F000F00EF00D17087006DF39A0
:1000680070069700831603131E08F000073003106C
:10007800F00CFF3E031D3B287008F100F10E8312BF
:10008800031317087106EF39710697001F08C33963
:1000980004389F0097281F0CF000700C0F39013AA4
:1000A800031D5728582881281E08F0000310700CDB
:1000B8007C3E9B001E080139F000F00EF00D1D0873
:1000C8007006DF3970069D00831603131E08F000C2
:1000D80007300310F00CFF3E031D6D287008F10077
:1000E800F10E831203131D087106EF3971069D0086
:1000F8001F08C33908389F0097281F0CF000700CA0
:100108000F39023A031D89288A2897281E08F0000B
:100118000310700C0139F100F2017108F600720841
:10012800F700C3309F052130F000F00B99288312A7
:1001380003130C139F140B1DA228A328C3280130F6
:10014800F8070318F90A0030F90777087906031D3C
:10015800AF2876087806031DB228B328B728F80117
:10016800F9018812BE2878087904031DBC28BD2827
:10017800BE2888160A128A1139210A128A117408AF
:100188008A00730E8300FE0E7E0E090070308316FF
:1001980003138F040F140A128A112E210A128A11CE
:1001A8008316031789010814881408150730831665
:1001B800031385008701831203138501870120300B
:1001C80083160313880083120313880186011F080E
:1001D8003F3980389F001F11831603139F121F1287
:1001E8009F13831203131F142130F500F50BFA280F
:1001F800831603130715FA3092003F308312031356
:1002080097051708F0390C3897000F309500CF3054
:100218009705831603138714831203131D08F039F7
:100228000C389D000F309B009D128C1003309204F7
:1002380012158C1C202921291D298C1083160313C3
:10024800881207118710831203139F142A290A1290
:100258008A110C288B160B11831203130C138316A7
:1002680003130C178B170B170800013083120313A5
:0602780081000B110800DB
:08400000FF3FFF3FFF3FFF3FC0
:04400E00D420FF3F7C
:00000001FF
