:060000000A128A113929E1
:10000800F000030EF1000B192B200C1822208C187D
:1000180028200B181420710E8300F00E700E0900B2
:1000280003138312061CB20A861CB203061DB40A07
:10003800861DBA0A061EBB0A0B100800C2308F00C4
:1000480062308E000C1008008C10B30A08000313ED
:100058008312FF3081000B1176216E2186218713D0
:10006800890124183C28260888000914A40A0800D5
:10007800270888008914A40A241C4428A50A080013
:100088008901880128088800091525184D28A50A1E
:100098000800890187138801290888008717241C0C
:0600A8003C28A50A080037
:100200008A010A140F3982073F3406345B344F34B5
:1002100066346D347D3407347F346F3477347C3406
:1002200039345E34793471348A010A140F39820703
:100230003F3418345B344F3466346D347D340734C6
:100240007F346F3477347C3439345E3479347134AC
:100250008A010A140B39820A82071F341C341F34A6
:100260001E341F341E341F341F341E341F341E34FA
:100270001F349421A7219B21CD21DC21E921F921E3
:10028000031383128801452142293208B300B001CB
:100290000A30B00A3302B30003184829B003B10191
:1002A0000A303307B1002D08AE00AB010A30AB0AAB
:1002B0002E02AE0003185629AB03AC010A302E07FC
:1002C000AC002B080021A9002C080021A800300850
:1002D0000021A70031080021A60008003C303302AD
:1002E000031973210800B301B20A08003C3032023E
:1002F00003197F213C303202031882210800B20129
:10030000AD0A08003B30B200AD0308006330320292
:1003100003198F2163303202031891210800AD01C7
:1003200008006330AD000800031383160F140F1389
:100330008F160F160800031383161614961416153D
:10034000961516160313831206080B1008000317E0
:1003500083168801890103130B14061486140615ED
:100360008615061681131514951415159515151671
:100370000313831688018501091089100911891159
:1003800087130313831288018501A401A501B3011A
:10039000AF01AA01AD01B201080003138316811257
:1003A00081110115811401140313831203138312A5
:1003B000FF3081000B110800031383129015901079
:1003C000101490161016C2308F0062308E000C1080
:1003D0000800031383121217921612169215921424
:1003E0001210121503138316F430920091018C1031
:1003F0000800031383160C148C14031383128B163A
:100400000B110C108C100B178B150B108B17080091
:04400E00D420FF3F7C
:00000001FF
