:060000000A128A112529F5
:10000800F000030EF1000B192D200C1824208C1879
:100018002B200B181420710E8300F00E700E0900AF
:1000280003138312061DB60A861DBD0A3D18080073
:10003800061CAF0A861CAF03061EBE0A0B1008007A
:10004800C2308F0062308E000C10B40A08008C1089
:10005800080003138312FF3081000B1189018713F5
:10006800880124184328A4184A28241951283C2810
:100078002608880009142414A4102411080027084D
:10008800880089142410A414241108002808880062
:1000980009152410A4102415080089018801871760
:0E00A800290888002410A41024110800080064
:100200008A010A140F3982073F3406345B344F34B5
:1002100066346D347D3407347F346F3477347C3406
:1002200039345E34793471348A010A140B39820A04
:1002300082071F341C341F341E341F341E341F34F5
:100240001F341E341F341E341F349621A9219D21D2
:10025000D121E021ED21FD210313831288018901C1
:10026000871333212E29BB0160216A2184212F08A5
:10027000BB00B001B0030A30B00A3B02BB00031858
:100280003B29B2010A303B07B2002A08BB00AB0190
:10029000AB030A30AB0A3B02BB0003184929AD018E
:1002A0000A303B07AD002B080021A9002D080021D2
:1002B000A80030080021A70032080021A60008008D
:1002C0003408BB003C303B02031867210800B4012E
:1002D000AF0A08002F08BB003C303B02031977210E
:1002E0002F08BB003C303B0203187A210800AF0105
:1002F000AA0A08003B30AF002A08BB0000303B02CE
:1003000003199321AA0308002A08BB0018303B02F6
:10031000031991212A08BB0018303B0203189321CE
:100320000800AA0108001830AA0008000313831669
:100330000F140F138F160F160800031383161614CD
:1003400096141615961516160313831206080B102D
:100350000800031783168801890103130B14061480
:100360008614061586150616811315149514151591
:100370009515151603138316880185010910891038
:100380000911891187130313831288018501A401C0
:10039000A501B401AF01AA01AB01B001AD01B201E9
:1003A00008000313831681128111011581140114B1
:1003B0000313831203138312FF3081000B11080013
:1003C0000313831290159010101490161016C2305B
:1003D0008F0062308E000C10080003138312121776
:1003E00092161216921592141210121503138316F8
:1003F000F430920091018C100800031383160C1442
:100400008C14031383128B160B110C108C100B170A
:080410008B150B108B1708007F
:04400E00D420FF3F7C
:00000001FF
