:060000000A128A116D29AD
:10000800F000030EF1000B1980200C1870208C18DA
:100018007D200B181420710E8300F00E700E09005D
:1000280003138312061DB50A861DC30A061EC50AD8
:10003800431820200B1008003508C000003040028B
:10004800031939283508C00001304002031948282F
:100058003508C00002304002031957283508C0008F
:100068000330400203196F28080045183E20451C3C
:1000780043200800061CAF0A861CAF030800061CB4
:10008800AB0A861CAB03080045184D20451C5220BE
:100098000800061CBA0A861CBA030800061CB70A20
:1000A800861CB70308004508C00000304002031949
:1000B80063284508C0000130400203196928C201BD
:1000C800061CCB0A861CCB030800C201061CC70A03
:1000D800861CC70308000800C2308F0062308E00FB
:1000E8000C10B30A4508C000023040020319C703C8
:1000F8000800A40A8C10080003138312FF30810043
:100108000B1143180516431C05123508C0000330AF
:1001180040020319B5018901871388012518A12810
:10012800A518AC282519B6289A2808002708880099
:1001380009142514A510251108003308880028087B
:1001480088008914241888172510A514251108007B
:100158008801290888000915241888172510A51072
:100168002515080087172A0888002510A5102511CD
:040178000800080073
:100200008A010A140F3982073F3406345B344F34B5
:1002100066346D347D3407347F346F3477347C3406
:1002200039345E34793471341C30BF00C0000800AA
:100230001D30BF00C00008001E30BF00C000080015
:100240001F30BF00C00008003708C0000130400266
:10025000031920213708C00002304002031914217D
:100260003708C00003304002031920213708C000BE
:100270000430400203191C213708C0000530400239
:10028000031920213708C0000630400203191C2141
:100290003708C00007304002031920213708C0008A
:1002A00008304002031920213708C00009304002FD
:1002B00003191C213708C0000A304002031920210D
:1002C0003708C0000B30400203191C213708C0005A
:1002D0000C304002031920210800C622D922CD2269
:1002E0000E231D232A233A23031383128713051297
:1002F0007A217629850188013508C0000030400246
:100300000319A3293508C000013040020319A729A9
:100310003508C000023040020319AB293508C0007F
:10032000033040020319AF2908004508C00002301D
:1003300040020319C50108004508C000033040020F
:100340000319C50108000514B321952108001722DF
:10035000851495210800652205159C210800B92205
:10036000851595210800C001E021EA2105222F080A
:10037000C000B101B1030A30B10A4002C000031845
:10038000BB29B2010A304007B2002B08C000AD0102
:10039000AD030A30AD0A4002C0000318C929AE01FE
:1003A0000A304007AE002D080021AA002E080021C7
:1003B000A90031080021A80032080021A700080088
:1003C0003308C0003C3040020318E7210800B301A5
:1003D000AF0A08002F08C0003C3040020319F72183
:1003E0002F08C0003C3040020318FA210800AF017A
:1003F000AB0A0800AF013B30AF002B08C000003053
:10040000400203191422AB0308002B08C000183067
:100410004002031912222B08C000183040020318B2
:1004200014220800AB0108001730AB000800C0011F
:10043000552243223A08C000BB01BB030A30BB0A65
:100440004002C00003181E2ABD010A304007BD004B
:100450003708C000B801B8030A30B80A4002C0002B
:1004600003182C2AB9010A304007B9003B080021C3
:10047000AA003D080021A90038080021A800390879
:100480000021A70008003708C0000D304002031902
:1004900050223708C0000D304002031852220800D5
:1004A000B70108000C30B700080024213A084002C8
:1004B0000319602224213A0840020318622208002E
:1004C000BA0108003F08BA000800C0019122A62224
:1004D0004B08C000CD01CD030A30CD0A4002C00058
:1004E00003186C2ACE010A304007CE004708C0002E
:1004F000C901C9030A30C90A4002C00003187A2A98
:10050000CA010A304007CA004D080021AA004E085F
:100510000021A90049080021A8004A080021A700DD
:1005200008004708C0003C30400203199E224708DB
:10053000C0003C3040020318A1220800C701CB0ACA
:100540000800C7013B30C700CB0308004B08C000C0
:10055000643040020319B3224B08C00064304002EB
:100560000318B6220800CB01C70108006330CB0096
:10057000080000080021AA0000080021A9000008C6
:100580000021A80000080021A7000800031383161B
:100590000F140F138F160F1608000313831616146B
:1005A00096141615961516160313831206080B10CB
:1005B0000800031783168801890103130B1406141E
:1005C000861406158615061681131514951415152F
:1005D00095151516031383168801850109108910D6
:1005E0000911891187130313831288018501A5015D
:1005F000A601B501C301C501C201B301C901CA0108
:10060000AF01BA01B701BA0AB70AAB01AD01B10136
:10061000AE01B201CB01CD01CE0108000313831658
:100620008112811101158114011403138312031324
:100630008312FF3081000B11080003138312901501
:100640009010101490161016C2308F0062308E0079
:100650000C1008000313831212179216121692152B
:1006600092141210121503138316F43092009101A4
:100670008C100800031383160C148C1403138312BC
:100680008B160B110C108C100B178B150B108B1776
:02069000080060
:04400E00D420FF3F7C
:00000001FF
