:060000000A128A110C280F
:10000800FE00030EF2000A08F3000A128A111428EF
:100018000A128A110F28F40183010A128A1188280A
:100028000B1C172818282A288312031306181D28C2
:100038001E2822280130F0007008F40786182528A9
:10004800262828280130F4020B104A2883120313AB
:100058008C1D2F2830284A285330F000F00B322806
:10006800740883120313930083160313141C3D288A
:100078003E2838280430F1003D30F000F00B4228CB
:10008800F10B42284728831203138C1173088A0046
:10009800720E8300FE0E7E0E090083160317890177
:1000A800880120308316031385008312031385010A
:1000B80018308316031387008312031387018316EE
:1000C80003130F088F3940388F000F14831203135E
:1000D8001408F03904389400141294168316031384
:1000E80014179413061486148113033095000330F3
:1000F80096008B150B10831203138C1183160313B0
:100108008C150B178B1708000A128A1151200A1236
:0A0118008A118D280A128A110C28A2
:08400000FF3FFF3FFF3FFF3FC0
:04400E00D420FF3F7C
:00000001FF
