:060000000A128A110C280F
:10000800FE00030EF1000A08F2000A128A116128A4
:100018000A128A110F28F40183010A128A11822810
:1000280083160317890104308800043083160313EC
:100038008500831203138501831603138801831235
:10004800031388018316031387018312031387019F
:10005800831603130F088F3940388F000F140614C6
:10006800811301309500013096000F088F39403810
:100078008F000F143F30831203139F058316031359
:100088001F129F12831203131F08C33908389F00D9
:10009800831603139F13831203131F140330F300F3
:1000A800F30B5428831203130C13831603130C1732
:1000B8000B178B178B150B100800831203130C1FDB
:1000C8006628672875281F0CF000700C0F39023A53
:1000D800031D6F28702874281E08F0007008F400AB
:1000E8000C130B1C782879287B2806080B1072083B
:1000F8008A00710E8300FE0E7E0E09000A128A1114
:1001080014200A128A11831203139F188C288D2831
:100118008E289F147408870087280A128A110C28D1
:08400000FF3FFF3FFF3FFF3FC0
:04400E00D420FF3F7C
:00000001FF
