:060000000A128A110C280F
:10000800FE00030EF1000A08F2000A128A11A42861
:100018000A128A110F28F60183010A128A1114287C
:100028000A128A115C200A128A11831203139F187C
:100038001E281F2820289F14851705135330F40005
:10004800F40B2428760883120313930083160313F2
:10005800141C2F2830282A280430F5003D30F400DD
:10006800F40B3428F50B342839288312031385132D
:1000780005175330F400F40B3F28FF3083120313A5
:10008800930083160313141C4A284B28452883120F
:100098000313130888000430F5003D30F400F40B16
:1000A8005328F50B5328582819280A128A110C28A6
:1000B800831603178901033088000330831603135E
:1000C80085008312031385018316031388018312A5
:1000D800031388018316031387018312031387010F
:1000E800831603130F088F3940388F000F14061436
:1000F800811301309500013096003F3083120313BD
:100108009F05831603131F129F12831203131F08E0
:10011800C33904389F00831603139F1383120313F4
:100128001F140330F300F30B9728831203130C13E7
:10013800831603130C170B178B178B150B1008005E
:10014800831203130C1FA928AA28B8281F0CF00033
:10015800700C0F39023A031DB228B328B7281E08BD
:10016800F0007008F6000C1372088A00710E830004
:06017800FE0E7E0E0900E0
:08400000FF3FFF3FFF3FFF3FC0
:04400E00D420FF3F7C
:00000001FF
