:060000000A128A11142906
:10000800F000030EF1000B182B200B191020710EB5
:100018008300F00E700E090003138312EC30810088
:100028000B11880123181D28280887000814A30A23
:10003800080029088700881424182428A40A08001E
:1000480088012A0887000815A40AA30A08000313D0
:0E0058008312061C850A861C85030B10080007
:100200008A010A140F3982073F3406345B344F34B5
:1002100066346D347D3407347F346F3477347C3406
:1002200039345E34793471342A2154213A21312110
:100230006321031383120508A2001F211B296B21D0
:100240002B080021A8002D080021A9002F0800215B
:10025000AA000800031383160F140F178F120F162E
:10026000080003138316161496140313831206084A
:100270000B100800031783168801890103130B1460
:10028000061486148113151495148701850108102E
:10029000881008110313831287018501A301A401AB
:1002A000AB01AF01AD010800031383168112811168
:1002B0000115811401140313831203138312EC300C
:1002C00081000B110800031383128B178B150B1081
:1002D0008B160B110800AF016430AF0A2202A20096
:1002E00003186C29AF0364302207AD010A30AD0A50
:1002F0002202A20003187629AD03AB010A302207BF
:0C030000AB00AB0AAB0AAB0AAB0A08006A
:04400E00D420FF3F7C
:00000001FF
