:060000000A128A110C280F
:10000800FE00030EF1000A08F2000A128A112528E0
:100018000A128A110F2883133430FD000030FE00C5
:10002800DD30FF00203084000A128A11F5200A1200
:100038008A11F501F601F701F80183010A128A1104
:100048000429831203138C1E2A282B282F281A0808
:10005800F0007008B1000C1F3228332871281F0CDB
:10006800F000700C0F39003A031D3B283C2841284A
:100078001F08C33904389F0069281F0CF000700C52
:100088000F39013A031D49284A284F281F08C33948
:1000980008389F0069281F0CF000700C0F39023ACD
:1000A800031D572858285D281F08C3390C389F009E
:1000B80069281F0CF000700C0F39033A031D6528DE
:1000C80066286928C3309F0569280330F000F00BC3
:1000D8006B28831203130C139F1472088A00710E85
:1000E8008300FE0E7E0E090000308A000408840A90
:1000F8008207003445346C34693467346134203401
:100108000D34203431342E3420344C346534653485
:100118007234203450346F34743465346E3463343C
:1001280069346F346D346534743472346F34203408
:100138000D34203432342E34203445346E34763441
:10014800693461347234203441347334633469342B
:10015800693420340D340034F40083120313310859
:1001680075060319B828B928DC28CF280C1EBD2825
:10017800BE28CB287708740784000A128A117820D1
:100188000A128A1199000130F3007308F707310841
:10019800F3007308F5007708740784000A128A11BF
:1001A80078200A128A11003A031DDB28DC28BA28B5
:1001B8000800433468346F346F3473346534203442
:1001C80050346F3473346934743469346F346E3432
:1001D8003A34203420340D340A347E088A007F08EB
:1001E80082000A128A11F1200A128A118000840AF8
:1001F80004087D0603190034FF0A0319FE0AF528CE
:060208000A128A110C2805
:08400000FF3FFF3FFF3FFF3FC0
:04400E00D420FF3F7C
:00000001FF
