:060000000A128A11142906
:10000800F000030EF1000C180E20710E8300F00EA4
:10001800700E09000B308F0047308E000C10850AD7
:020028000800CE
:100200008A010A140F3982073F3406345B344F34B5
:1002100066346D347D3407347F346F3477347C3406
:1002200039345E347934713428212F21432151210E
:1002300003138312A2010508A2001A292E08002127
:10024000AB002D080021AA002C080021A9000800FD
:10025000031383160F140F178F160F1208000317BE
:10026000831688018901031383168701850108100D
:1002700088100313831287018501A401A501AC0135
:10028000AE01AD010800031383121013901610166F
:100290009011901010140B308F0047308E000C100E
:1002A0000800031383160C14031383120C100B178E
:1002B0008B170800AE01AE036430AE0A2202A20022
:1002C00003185C2964302207A200AD010A30AD0A90
:1002D0002202A20003186629AD03AC010A302207EE
:0402E000AC00080066
:04400E00D420FF3F7C
:00000001FF
