:060000000A128A110C280F
:10000800FE00030EF2000A08F3000A128A11B32850
:100018000A128A110F280A128A1143210A128A1118
:10002800FB00F701F801F901FA0183010A128A11AC
:100038001F29831603178801890183160313880172
:1000480083120313880183160317081488140815EC
:1000580007308316031385000130860083120313CB
:1000680086011F083F3980389F001F11831603132C
:100078009F121F129F13831203131F140330F400DF
:10008800F40B44284728831603130F088F39403888
:100098008F000F14831203138C100330920412156F
:1000A8008C1C5728582854288C10831603131812B0
:1000B800181583160317871519308316031399002B
:1000C8009A018312031398178316031318139816AB
:1000D8008312031318168B170B17831603138C162A
:1000E800831203130C13831603130C170330F40045
:1000F800F40B7C287F28831203139F14061C852881
:100108008628992810308316031387008312031357
:100118008701F030940514129416831603131417EC
:100128009417831203139301B2281830831603130C
:1001380087008312031387011408F03904389400E8
:1001480014129416831603131417941383120313AB
:100158008C11831603138C150B178B170800831249
:1001680003138C1DB828B928BC28130888008C11E3
:100178000C1FBF28C02818291F0CF000700C0F395D
:10018800003A031DC828C928D2281E08F0007008A4
:10019800F9001F08C33904389F0010291F0CF0000C
:1001A800700C0F39013A031DDA28DB2804291E08D0
:1001B800F0000310700C7C3E9B001E080139F00013
:1001C800F00EF00D1D087006DF3970069D008316CD
:1001D80003131E08F00007300310F00CFF3E031D48
:1001E800F0287008F100F10E831203131D08710640
:1001F800EF3971069D001F08C33908389F00102980
:100208001F0CF000700C0F39023A031D0C290D2940
:1002180010290C13C3309F050330F000F00B12298E
:10022800831203130C139F1473088A00720E830041
:10023800FE0E7E0E09000A128A111D200A128A116A
:1002480083120313061C29292A29242979089300D3
:1002580083160313141C312932292C297908831297
:10026800031388000430F6003D30F500F50B3A29F9
:10027800F60B3A293F2924290A128A110C28FF343F
:08400000FF3FFF3FFF3FFF3FC0
:04400E00FF3FFF3F32
:00000001FF
