:060000000A128A110E280D
:10000800FE00030EF3000408F4000A08F5000A12C3
:100018008A1159280A128A1111280A128A110621EE
:100028000A128A11F700F60183010A128A11AD2813
:100038008312031385010130F0007008F707362892
:100048000514582885145828051558288515582842
:10005800051658288516582805175828851758282A
:10006800F70124287708F000F1017108003A031914
:100078003E2834287008003A03192428013A031945
:100088002628033A03192828013A03192A28073A87
:1000980003192C28013A03192E28033A031930288A
:1000A800013A03193228342808000B1C5C285D2803
:1000B800622883120313060806080B100B1D652817
:1000C80066286B280A128A1100210A128A118312E3
:1000D80003130C1C7028712883280A128A11F22035
:1000E8000A128A110130F2007208F60776187D2884
:1000F8007E2883280A128A111C200A128A11750880
:100108008A0074088400730E8300FE0E7E0E0900B8
:100118008316031788018901831603138501831247
:1001280003138501831603138701831203138701C1
:1001380083160313061486148113151495148B154E
:10014800161496140B100F088F3960388F000F148F
:1001580008000A128A118C200A128A110A128A11BE
:10016800D2200A128A110A128A11C5200A128A118B
:100178000A128A11DF200A128A11C1280A128A116A
:100188000E28831203139015901010143030900429
:100198000A128A11EA200A128A1108008316031328
:1001A800811281110115811401140A128A11FA2091
:1001B8000A128A1108008B160B11831603130C14EC
:1001C800831203130C108B170B1708000B308312C4
:1001D80003138F00B8308E000C1008000B30831208
:1001E80003138F00B8308E000C1008003C308312C7
:1001F800031381000B1108003C30831203138100A4
:060208000B110800FF3499
:08400000FF3FFF3FFF3FFF3FC0
:04400E00D420FF3F7C
:00000001FF
