:060000000A128A11142906
:10000800F000030EF10003138312E33081000B119B
:0C0018005521710E8300F00E700E0900DF
:100200008A010A140F3982073F3406345B344F34B5
:1002100066346D347D3407347F346F3477347C3406
:1002200039345E3479347134192120212D21432150
:100230001829031383160F140F178F120F160800B7
:100240000313831681128111011581140114031304
:100250008312E33081000B11080003178316880115
:1002600089010313811315149514161496140B1495
:1002700006148614870188018901031383128701FC
:10028000880189010800031383128B178B160B1149
:1002900008004C21870A0800061C4C29080052213E
:1002A00087030800861C52290800061C4921861C69
:0402B0004F210800D2
:04400E00C430FF3F7C
:00000001FF
